:020000040000FA
:10000000880300200D030000150300001703000003
:10001000190300001B0300001D0300000000000086
:100020000000000000000000000000001F030000AE
:10003000210300000000000023030000C1150000A0
:10004000150500006D060000C50700001D09000031
:10005000750A00003103000033030000350300007F
:1000600037030000390300003B0300003D0300009C
:100070003F0300004103000043030000450300006C
:1000800047030000490300004B0300007516000001
:100090004F0300009916000053030000BD16000036
:1000A00057030000590300005B0300005D030000DC
:1000B0005F03000061030000D10B00006503000036
:1000C00067030000690300006B030000E1160000F5
:1000D0006F0300007103000073030000750300004C
:1000E0007703000079030000000000007B0300009C
:1000F0007D0300007F0300008103000083030000F4
:100100008503000087030000890300008B030000C3
:1001100000000000000000008D0300008F030000BD
:100120009103000093030000950300009703000073
:10013000990300009B0300009D0300009F03000043
:1001400000000000000000000000000000000000AF
:10015000A1030000A303000005170000A70300008F
:10016000000000000000000000000000000000008F
:10017000000000000000000000000000000000007F
:10018000000000000000000000000000000000006F
:10019000000000000000000000000000000000005F
:1001A000000000000000000000000000000000004F
:1001B00029170000AB0300004D170000AF0300003B
:1001C00071170000B303000095170000B70300008B
:1001D000B9170000BB030000DD170000BF030000DB
:1001E00001180000C3030000C50300000000000068
:1001F00000000000C7030000C9030000CB0300009B
:10020000CD030000CF03000000000000000000004C
:10021000D1030000D3030000D5030000D703000082
:10022000D9030000DB030000DD030000DF03000052
:10023000E1030000E3030000E5030000E703000022
:10024000E9030000EB030000ED030000EF030000F2
:10025000F1030000F3030000F5030000F7030000C2
:10026000F9030000FB030000FD03000000F002F8AA
:1002700000F03CF80AA090E8000C82448344AAF104
:100280000107DA4501D100F031F8AFF2090EBAE802
:100290000F0013F0010F18BFFB1A43F001031847BA
:1002A000F41E0000141F0000103A24BF78C878C163
:1002B000FAD8520724BF30C830C144BF04680C606C
:1002C000704700000023002400250026103A28BFB4
:1002D00078C1FBD8520728BF30C148BF0B607047B8
:1002E0001FB501F00CFF1FBD10B510BD00F09BF84D
:1002F0001146FFF7F5FF01F009FD00F0B9F803B46E
:10030000FFF7F2FF03BC00F0C1F800003F48804750
:100310003F480047FEE7FEE7FEE7FEE7FEE7FEE7B1
:10032000FEE7FEE7FEE7FEE7FEE7FEE7FEE7FEE7A5
:10033000FEE7FEE7FEE7FEE7FEE7FEE7FEE7FEE795
:10034000FEE7FEE7FEE7FEE7FEE7FEE7FEE7FEE785
:10035000FEE7FEE7FEE7FEE7FEE7FEE7FEE7FEE775
:10036000FEE7FEE7FEE7FEE7FEE7FEE7FEE7FEE765
:10037000FEE7FEE7FEE7FEE7FEE7FEE7FEE7FEE755
:10038000FEE7FEE7FEE7FEE7FEE7FEE7FEE7FEE745
:10039000FEE7FEE7FEE7FEE7FEE7FEE7FEE7FEE735
:1003A000FEE7FEE7FEE7FEE7FEE7FEE7FEE7FEE725
:1003B000FEE7FEE7FEE7FEE7FEE7FEE7FEE7FEE715
:1003C000FEE7FEE7FEE7FEE7FEE7FEE7FEE7FEE705
:1003D000FEE7FEE7FEE7FEE7FEE7FEE7FEE7FEE7F5
:1003E000FEE7FEE7FEE7FEE7FEE7FEE7FEE7FEE7E5
:1003F000FEE7FEE7FEE7FEE7FEE7FEE7FEE70000BA
:1004000004480549034A054B70470000E515000004
:100410006D02000088010020880300208801002070
:10042000704770477047754600F02CF8AE460500DF
:100430006946534620F00700854618B020B5FFF7FF
:10044000DFFFBDE820404FF000064FF000074FF0FF
:1004500000084FF0000B21F00701AC46ACE8C009E2
:10046000ACE8C009ACE8C009ACE8C0098D467047EB
:1004700010B50446AFF300802046BDE81040FFF7FA
:100480003EBF0000004870472401002001491820A9
:10049000ABBEFEE7260002007047F8B505460E46E3
:1004A0001446012700200090062D0FDA082E0BDAE3
:1004B00044B16A463146284600F036FC9DF80000FB
:1004C000207004E0002702E0002700E00027384603
:1004D000F8BD7CB504460D460126062C17DA082D1A
:1004E00013DA02208DF8040000208DF803008DF847
:1004F00001008DF806508DF802008DF800008DF88F
:100500000540684600F086FC02E0002600E0002678
:1005100030467CBD10B54C48006878B14B48006847
:1005200000F0010050B14848006880474748083053
:10053000006840F0010045490831086044480068FF
:1005400078B14248006800F0020050B140480068AD
:1005500080473E480830006840F002003B490831BF
:1005600008603C48006878B13848006800F0040032
:1005700050B138480068804734480830006840F07F
:1005800004003249083108603348006878B12F48C8
:10059000006800F0080050B12F48006880472B48E1
:1005A0000830006840F008002849083108602B48EE
:1005B000006878B12548006800F0100050B1274865
:1005C0000068804721480830006840F010001F494B
:1005D000083108602248006878B11C48006800F0C3
:1005E000200050B11E480068804718480830006855
:1005F00040F020001549083108601A48006878B1B9
:100600001248006800F0400050B11648006880476A
:100610000E480830006840F040000C49083108607E
:100620001148006878B10948006800F0800050B1B6
:100630000D480068804705480830006840F0800099
:1006400002490831086010BD000000201444004039
:1006500004000020080000200C00002010000020F2
:1006600014000020180000201C00002010B54C4889
:10067000006878B14B48006800F0010050B148486C
:100680000068804747480830006840F0010045494D
:10069000083108604448006878B14248006800F0BA
:1006A000020050B14048006880473E48083000686A
:1006B00040F002003B49083108603C48006878B1CE
:1006C0003848006800F0040050B13848006880479E
:1006D00034480830006840F00400324908310860AE
:1006E0003348006878B12F48006800F0080050B126
:1006F0002F48006880472B480830006840F0080009
:100700002849083108602B48006878B125480068FE
:1007100000F0100050B12748006880472148083099
:10072000006840F010001F49083108602248006846
:1007300078B11C48006800F0200050B11E480068E5
:10074000804718480830006840F0200015490831FB
:1007500008601A48006878B11248006800F040004C
:1007600050B11648006880470E480830006840F0D5
:1007700040000C49083108601148006878B1094808
:10078000006800F0800050B10D48006880470548BF
:100790000830006840F0800002490831086010BD50
:1007A00020000020145400402400002028000020D5
:1007B0002C000020300000203400002038000020F1
:1007C0003C00002010B54C48006878B14B480068E8
:1007D00000F0010050B148480068804747480830A1
:1007E000006840F00100454908310860444800684D
:1007F00078B14248006800F0020050B140480068FB
:1008000080473E480830006840F002003B4908310C
:1008100008603C48006878B13848006800F004007F
:1008200050B138480068804734480830006840F0CC
:1008300004003249083108603348006878B12F4815
:10084000006800F0080050B12F48006880472B482E
:100850000830006840F008002849083108602B483B
:10086000006878B12548006800F0100050B12748B2
:100870000068804721480830006840F010001F4998
:10088000083108602248006878B11C48006800F010
:10089000200050B11E4800688047184808300068A2
:1008A00040F020001549083108601A48006878B106
:1008B0001248006800F0400050B1164800688047B8
:1008C0000E480830006840F040000C4908310860CC
:1008D0001148006878B10948006800F0800050B104
:1008E0000D480068804705480830006840F08000E7
:1008F00002490831086010BD400000201464004027
:1009000044000020480000204C000020500000203F
:1009100054000020580000205C00002010B54C4816
:10092000006878B14B48006800F0010050B14848B9
:100930000068804747480830006840F0010045499A
:10094000083108604448006878B14248006800F007
:10095000020050B14048006880473E4808300068B7
:1009600040F002003B49083108603C48006878B11B
:100970003848006800F0040050B1384800688047EB
:1009800034480830006840F00400324908310860FB
:100990003348006878B12F48006800F0080050B173
:1009A0002F48006880472B480830006840F0080056
:1009B0002849083108602B48006878B1254800684C
:1009C00000F0100050B127480068804721480830E7
:1009D000006840F010001F49083108602248006894
:1009E00078B11C48006800F0200050B11E48006833
:1009F000804718480830006840F020001549083149
:100A000008601A48006878B11248006800F0400099
:100A100050B11648006880470E480830006840F022
:100A200040000C49083108601148006878B1094855
:100A3000006800F0800050B10D480068804705480C
:100A40000830006840F0800002490831086010BD9D
:100A50006000002014740040640000206800002042
:100A60006C0000207000002074000020780000203E
:100A70007C00002010B54C48006878B14B480068F5
:100A800000F0010050B148480068804747480830EE
:100A9000006840F00100454908310860444800689A
:100AA00078B14248006800F0020050B14048006848
:100AB00080473E480830006840F002003B4908315A
:100AC00008603C48006878B13848006800F00400CD
:100AD00050B138480068804734480830006840F01A
:100AE00004003249083108603348006878B12F4863
:100AF000006800F0080050B12F48006880472B487C
:100B00000830006840F008002849083108602B4888
:100B1000006878B12548006800F0100050B12748FF
:100B20000068804721480830006840F010001F49E5
:100B3000083108602248006878B11C48006800F05D
:100B4000200050B11E4800688047184808300068EF
:100B500040F020001549083108601A48006878B153
:100B60001248006800F0400050B117480068804704
:100B70000E480830006840F040000C490831086019
:100B80001248006878B10948006800F0800050B150
:100B90000E480068804705480830006840F0800033
:100BA00002490831086010BD800000201444024052
:100BB00084000020880000208C000020900000208D
:100BC00094000020B8000020980000209C00002025
:100BD00010B54C48006878B14B48006800F001003F
:100BE00050B148480068804747480830006840F0E6
:100BF00001004549083108604448006878B142481E
:100C0000006800F0020050B14048006880473E484C
:100C10000830006840F002003B49083108603C4859
:100C2000006878B13848006800F0040050B13848D6
:100C30000068804734480830006840F004003249BA
:100C4000083108603348006878B12F48006800F028
:100C5000080050B12F48006880472B4808300068D2
:100C600040F008002849083108602B48006878B136
:100C70002548006800F0100050B127480068804700
:100C800021480830006840F010001F490831086012
:100C90002248006878B11C48006800F0200050B17C
:100CA0001E480068804718480830006840F020005F
:100CB0001549083108601A48006878B11248006880
:100CC00000F0400050B11648006880470E480830D8
:100CD000006840F040000C49083108601148006885
:100CE00078B10948006800F0800050B10D480068F4
:100CF000804705480830006840F08000024908310C
:100D0000086010BDA000002014540240A400002080
:100D1000A8000020AC000020B0000020B40000209B
:100D2000B8000020BC00002030B503460120F2B11D
:100D3000062B1ADA082916DA042B04DA4FF04024BD
:100D400004EB033403E01C1F0A4D05EB0434D4F814
:100D5000FC4301258D402C4014B90124147007E098
:100D60000024147004E0002002E0002000E00020D5
:100D700030BD00000040024070B503460120062B44
:100D800044DA082940DAEAB9042B04DA4FF04024A7
:100D900004EB033403E01C1F1D4D05EB0434D4F8B1
:100DA000FC5301248C40A543042B04DA4FF040246B
:100DB00004EB033403E01C1F154E06EB0434C4F8A7
:100DC000FC5324E0012A1DD1042B04DA4FF0402407
:100DD00004EB033403E01C1F0D4D05EB0434D4F881
:100DE000FC5301248C402543042B04DA4FF04024AB
:100DF00004EB033403E01C1F054E06EB0434C4F877
:100E0000FC5304E0002002E0002000E0002070BD60
:100E10000040024070B503460120002B72D0597982
:100E20009A7939B9FE4C246844F00104FD4DC5F8A7
:100E3000084132E0012907D1F94C246844F002044A
:100E4000F84DC5F8084128E0022907D1F44C246880
:100E500044F00404F34DC5F808411EE0032907D10E
:100E6000EF4C246844F00804EE4DC5F8084114E046
:100E7000042907D1EA4C246844F01004E94DC5F870
:100E800008410AE0052907D1E54C246844F0200414
:100E9000E44DC5F8084100E00020E34D042904DAE0
:100EA0004FF0402404EB013403E00C1FDF4E06EB4F
:100EB0000434C4F82055042904DA4FF0402404EB2C
:100EC000013403E00C1FD94D05EB0434D4F824554C
:100ED000012494402543042904DA4FF0402404EB14
:100EE000013403E00C1FD14E06EB0434C4F8245542
:100EF0005C78012C1ED1042905DA4FF0402404EB64
:100F0000013404E0FFE10C1FC84D05EB0434D4F8B4
:100F10000054012494402543042904DA4FF040246E
:100F200004EB013403E00C1FC04E06EB0434C4F89C
:100F300000541CE0042904DA4FF0402404EB01348F
:100F400003E00C1FB94D05EB0434D4F80054012420
:100F50009440A543042904DA4FF0402404EB013403
:100F600003E00C1FB14E06EB0434C4F80054DC78E7
:100F7000ECB9042904DA4FF0402404EB013403E017
:100F80000C1FAA4D05EB0434D4F8105501249440ED
:100F90002543042904DA4FF0402404EB013403E034
:100FA0000C1FA24E06EB0434C4F8105542E0DC7866
:100FB000012C1DD1042904DA4FF0402404EB013444
:100FC00003E00C1F994D05EB0434D4F814550124AB
:100FD00094402543042904DA4FF0402404EB013403
:100FE00003E00C1F914E06EB0434C4F8145521E0C5
:100FF000DC78022C1DD1042904DA4FF0402404EBE4
:10100000013403E00C1F894D05EB0434D4F80C5572
:10101000012494402543042904DA4FF0402404EBD2
:10102000013403E00C1F814E06EB0434C4F80C5568
:1010300000E000201C79ECB9042904DA4FF04024C8
:1010400004EB013403E00C1F784D05EB0434D4F8B5
:101050000055012494402543042904DA4FF040242C
:1010600004EB013403E00C1F704E06EB0434C4F8AB
:10107000005542E01C79012C1DD1042904DA4FF0FF
:10108000402404EB013403E00C1F684D05EB0434ED
:10109000D4F80455012494402543042904DA4FF080
:1010A000402404EB013403E00C1F604E06EB0434D3
:1010B000C4F8045521E01C79022C1DD1042904DA5E
:1010C0004FF0402404EB013403E00C1F574D05EBB7
:1010D0000434D4F80855012494402543042904DA43
:1010E0004FF0402404EB013403E00C1F4F4E06EB9D
:1010F0000434C4F8085500E000201C789CBB042987
:1011000004DA4FF0402404EB013403E00C1F474D98
:1011100005EB0434D4F8205401249440A543042959
:1011200004DA4FF0402404EB013403E00C1F3F4E7F
:1011300006EB0434C4F82054042904DA4FF04024A8
:1011400004EB013403E00C1F384D05EB0434D4F8F4
:101150001C55012494402543042905DA4FF040240E
:1011600004EB013404E023E00C1F304E06EB0434A2
:10117000C4F81C55042904DA4FF0402404EB013470
:1011800003E00C1F294D05EB0434D4F82855012445
:101190009440A543042904DA4FF0402404EB0134C1
:1011A00003E00C1F214E06EB0434C4F8285567E019
:1011B0001C78012C60D1042904DA4FF0402404EBA0
:1011C000013403E00C1F194D05EB0434D4F820540E
:1011D00001249440A543042904DA4FF0402404EB91
:1011E000013403E00C1F114E06EB0434C4F8205404
:1011F000042904DA4FF0402404EB013403E00C1F0F
:101200000A4D05EB0434D4F81C5501249440A54341
:1012100004290DDA4FF0402404EB01340CE0000007
:1012200008E10F4000E00F404B434F4C00400240AC
:101230000C1F364E06EB0434C4F81C55042904DA9E
:101240004FF0402404EB013403E00C1F2F4D05EB5D
:101250000434D4F82855012494402543042904DAA1
:101260004FF0402404EB013403E00C1F274E06EB43
:101270000434C4F8285503E01C78022C00D0002068
:101280009C78ECB9042904DA4FF0402404EB0134D3
:1012900003E00C1F1D4D05EB0434D4F8FC5301246E
:1012A0009440A543042904DA4FF0402404EB0134B0
:1012B00003E00C1F154E06EB0434C4F8FC5323E086
:1012C0009C78012C1DD1042904DA4FF0402404EB52
:1012D000013403E00C1F0D4D05EB0434D4F8FC532E
:1012E000012494402543042904DA4FF0402404EB00
:1012F000013403E00C1F054E06EB0434C4F8FC5324
:1013000002E0002000E0002070BD0000004002402C
:1013100030B502460120062A21DA08291DDA042AFE
:1013200004DA4FF0402303EB023303E0131F0D4CAC
:1013300004EB0333D3F8FC4301238B405C40042AC5
:1013400004DA4FF0402303EB023303E0131F054D93
:1013500005EB0333C3F8FC4302E0002000E000206B
:1013600030BD0000004002407CB504460D46012619
:10137000062C19DA082D15DA02208DF80400002059
:101380008DF8030001208DF801008DF80650002033
:101390008DF802008DF800008DF805406846FFF7D3
:1013A00039FD02E0002600E0002630467CBD00004A
:1013B000F0B585B004460D4616460127062C1FDA07
:1013C000082D1DDA0C2E1BDA0F4804700F4805702B
:1013D0000F4806700F4A07CA02AB07C38DF80860B2
:1013E0000C490C3103C9CDE900018DF805408DF899
:1013F00006506846FFF70EFD02A800F08BFA00E0E9
:101400000027384605B0F0BDC8000020C900002004
:10141000CA0000208021000010B52B48007800EEA3
:10142000100AB8EE400ADFED290AB4EEE00AF1EE48
:1014300010FA34D224480078002830DD244800789F
:10144000B0B924480278244890ED000ABCEEC00AE6
:1014500010EE101A2148007800F098FB01201C497A
:1014600008701F4801781F480078FFF751FF29E0F6
:10147000184802781C4890ED000ABCEEC00A10EE35
:10148000101A1648007800F081FB002010490870FF
:101490001348017813480078FFF73AFF12E00A4832
:1014A0000078642807D101220D4801780D480078A2
:1014B000FFF762FC06E0002209480178094800783D
:1014C000FFF75AFC10BD0000D80000200000C84201
:1014D000CC000020CB000020D4000020CA00002057
:1014E000C9000020C8000020D00000202DE9F041F4
:1014F0002DED028B06460D4617461C464FF001089F
:101500009FED290AB0EE408A9FED270AF0EE408A4F
:10151000264804700C2E40DAADB300EE104AB8EE47
:10152000400ADFED230AB4EEE00AF1EE10FA2BD206
:10153000002C29DD00EE105AF8EE400A00EE104AA9
:10154000B8EE400A20EE800ADFED190A80EE201A7C
:10155000F0EE418A00EE105AB8EE400A30EE680A0A
:10156000B0EE408A134880ED008A1348C0ED008A2F
:10157000124807703A46BCEEC80A10EE101A304600
:1015800000F004FB0BE005E03A462946304600F047
:10159000FDFA04E04FF0000801E04FF0000840467B
:1015A000BDEC028BBDE8F08100000000D8000020F7
:1015B0000000C842D0000020D4000020CB00002052
:1015C00010B50748006810B10548006880474FF023
:1015D000E020006920F002004FF0E021086110BD1A
:1015E000C40000201B49096841F47001194A1160C8
:1015F00019491A4A11671A4911661A4911661A4996
:101600001167002000E0401CB0F57A7FFBD317493A
:10161000124A116616491167002000E0401CB0F51F
:101620007A7FFBD311490D4A116600BF0B49096D42
:1016300001F040014029F9D10C49084A11664FF0E8
:10164000C0711167002000E0401C42F21071884216
:10165000FAD3704788ED00E01028800700E00F40C3
:10166000D13A8E07402D9E0100288001400D9E0139
:101670000008800110B50648006840B104490868B8
:1016800080470448406A40F001000249486210BDAA
:10169000F40000200000034010B50648406840B147
:1016A0000449486880470448406A40F00100024904
:1016B000486210BDF40000200010034010B5064839
:1016C000806840B10449886880470448406A40F017
:1016D00001000249486210BDF400002000200340D0
:1016E00010B50648C06840B10449C868804704483E
:1016F000406A40F001000249486210BDF400002039
:101700000030034010B50648006940B1044908693B
:1017100080470448406A40F001000249486210BD19
:10172000F40000200040034010B50648406940B175
:101730000449486980470448406A40F00100024972
:10174000486210BDF40000200050034010B5064868
:10175000806940B10449886980470448406A40F084
:1017600001000249486210BDF400002000600340FF
:1017700010B50648C06940B10449C86980470448AB
:10178000406A40F001000249486210BDF4000020A8
:101790000070034010B50648006A40B10449086A69
:1017A00080470448406A40F001000249486210BD89
:1017B000F400002000C0044010B50648406A40B163
:1017C0000449486A80470448406A40F001000249E1
:1017D000486210BDF400002000D0044010B5064857
:1017E000806A40B10449886A80470448406A40F0F2
:1017F00001000249486210BDF400002000E00440EE
:1018000010B50648C06A40B10449C86A8047044818
:10181000406A40F001000249486210BDF400002017
:1018200000F0044000280DDB00BF00BF00F01F02E5
:10183000012191404209920002F1E022C2F8001118
:1018400000BF00BF704710B503210520FFF78CFDD6
:1018500000210520FEF73DFE002203210520FFF7B1
:10186000A7FD10BD08B5002500200090012600242A
:10187000002736E06A4600210520FEF70EFE9DF89F
:101880000000012821D1322100F02CF86A46002105
:101890000520FEF702FE9DF80000012817D1B6B919
:1018A0000125601CC4B2012C01D11E2708E0022CC6
:1018B00001D13C2704E0032C01D15A2700E0002786
:1018C0000126042C03D1002401E000260025012D6F
:1018D00007D13B4601224FF4FA710020FFF706FEC4
:1018E0000025C7E7FEB504460D4601260C2C0EDA8E
:1018F00000200090019002908DF80040684600F0B2
:1019000009F801222946204600F040F900E00026AF
:101910003046FEBD70B5054600260024002D72D06D
:1019200028786D49085C00286ED12C780C2C6CDA74
:10193000052C07DC694800680121A140084367497C
:10194000086009E0654858300068A11F01228A40FC
:101950001043624958310860082C03DA604800EBF4
:10196000043004E0A4F108005E4901EB0030C068D7
:1019700020F00101082C03DA594800EB043004E0A0
:10198000A4F10800574A02EB0030C160082C03DACA
:10199000534800EB043004E0A4F10800514901EB86
:1019A0000030C06820F48071082C03DA4C4800EB4A
:1019B000043004E0A4F108004A4A02EB0030C160A0
:1019C000082C03DA464800EB043004E0A4F10800D8
:1019D000444901EB0030006820F00101082C03DAD3
:1019E0003F4800EB043004E0A4F108003D4A02EB5C
:1019F00000300160687880B90121082C06DA384887
:101A000000EB043007E064E05DE05AE0A4F1080078
:101A1000344A02EB0030416011E0687801280DD1B2
:101A20000221082C03DA2E4800EB043004E0A4F174
:101A300008002C4A02EB0030416000E00126082C2F
:101A400003DA274800EB043004E0A4F1080025493C
:101A500001EB0030406820F01001082C03DA204828
:101A600000EB043004E0A4F108001E4A02EB003051
:101A70004160287A012827D1082C03DA184800EBA6
:101A8000043004E0A4F10800164901EB003080693D
:101A900040F00101082C03DA114800EB043004E0A7
:101AA000A4F108000F4A02EB00308161287800F0B1
:101AB0001FF80D49686841F8240001200B490855BA
:101AC00002E0012600E0012601202978024A505454
:101AD00000E00126304670BDDC00002004E60F4027
:101AE0000000034000C00440F4000020E800002093
:101AF00070B5044600250C2C44DA1CB91320FFF7FE
:101B000091FE40E0012C03D11520FFF78BFE3AE057
:101B1000022C03D11720FFF785FE34E0032C03D1FC
:101B20002320FFF77FFE2EE0042C03D14620FFF791
:101B300079FE28E0052C03D15C20FFF773FE22E03C
:101B4000062C03D15E20FFF76DFE1CE0072C03D1AD
:101B50006020FFF767FE16E0082C03D16220FFF734
:101B600061FE10E0092C03D16420FFF75BFE0AE060
:101B70000A2C03D16620FFF755FE04E06820FFF72A
:101B800051FE00E0012562B6284670BD2DE9F05FE8
:101B90002DED048B04460F4692464FF0000B0020BB
:101BA0008046814600BF5248005D01286FD10C2C51
:101BB0006EDABAF1000F02D100263D460AE0BAF112
:101BC000010F04D14FF47A70A7FB005602E0494898
:101BD000A7FB00564FF08051691A76F1000005D33B
:101BE0004FF43D61691A76F180500ED22846314695
:101BF00000F0ECF99FED400B53EC102B00F08EF849
:101C000000F082FA8046894601E04FF0010B082C73
:101C100003DA3B4800EB043004E0A4F10800394942
:101C200001EB0030C0F82880062C0CDB082C03DA0E
:101C3000334800EB043004E0A4F10800314901EB23
:101C40000030C0F82C90082C03DA2D4800EB04304B
:101C500004E0A4F108002B4901EB0030C06840F01B
:101C60000101082C03DA264800EB043004E0A4F15B
:101C70000800244A02EB0030C1602348005D60BBCD
:101C800000BF082C05DA1E4800EB043006E028E00F
:101C900024E0A4F108001B4901EB0030C06900F00A
:101CA00001000028EDD0082C03DA154800EB0430C1
:101CB00004E0A4F10800134901EB0030406A40F051
:101CC0000101082C03DA0E4800EB043004E0A4F113
:101CD00008000C4A02EB0030416204E04FF0010BB7
:101CE00001E04FF0010B5846BDEC048BBDE8F09FBE
:101CF000DC00002040420F00000000000000B03F68
:101D00000000034000C00440E800002010B5FFF7C9
:101D10009AFDFFF7A7FD002010BD00002DE9C0418E
:101D200030B4DFF8A0C23CEA111418BF3CEA131427
:101D300000F0EC8081EA03051CEA111444EAD57432
:101D400018BF1CEA131500F0C780A4EB05044FF080
:101D5000004545EAC12145EAC32341EA505143EA1F
:101D6000525304F17F74994204F500344FEAC020C5
:101D70004FEAC22208BF904200F09C804FEA1365F0
:101D80000FF24016765D4FEA134506FB05F7C7F1E3
:101D9000807706FB07F74FEAD737A7FB0368764241
:101DA000C8F58038A7FB06CE38BFA8F1010807FBAD
:101DB00008E64FF0000EA6FB028CE6FB03CEDCF13A
:101DC000000CCEF1004E38BFAEF1010EA6FB0C5850
:101DD0004FF000074FF00005E6FB0E87A1FB08C699
:101DE000A0FB07CE16EB0E0645F10005E1FB0765EB
:101DF00015F1E04E7EBFA4F580345FEA46066D41E2
:101E000016F1800745F100054FEA17274FEA0666ED
:101E100047EA0567A6F1DE46B6F1805F4FEA152571
:101E20001FD9384624F0010C05EBC471BCF1FE6FDC
:101E300001EB0C1102D8F0BCBDE8008124425CBF6C
:101E400001F5801E9EEAC47F02D4F0BCBDE800818B
:101E5000244238D4F0BCA1F1C041BDE8004100F0FB
:101E600048B94FEAD22242EA43524FEAD323A7FBB2
:101E700002864FEAD02040EA415007FB03661EEA83
:101E80000E0F4FEAD12105FB026658BFA6EB0056A4
:101E9000B6EB00564FEA520E4EEAC37E18EB0E0E1A
:101EA00056EB530EBDD518EB02085E417F1C55F171
:101EB0000005B6E74FF480154FF000074FF000061D
:101EC0004FF00008ADE7F0BC4FF0000001F1C04159
:101ED00001F00041BDE8008111EA0C1F0CEA131566
:101EE00000D00CE013EA0C1F00F025804FF000003A
:101EF000F0BC81EA030101F00041BDE80081F0BCC3
:101F0000BDE8004181EA030100F0F3B8F0BCBDE890
:101F1000004170B500F09FF8097EFC3E00F007B864
:101F200081EA03014FF0000001F00041704781EAAF
:101F3000030100F0DEB8F0BCBDE800414FF0000046
:101F400021497047FFFDFBF9F7F5F4F2F0EEEDEBF8
:101F5000E9E8E6E4E3E1E0DEDDDBDAD8D7D5D4D3A7
:101F6000D1D0CFCDCCCBCAC8C7C6C5C4C2C1C0BFF3
:101F7000BEBDBCBBBAB9B8B7B6B5B4B3B2B1B0AFF9
:101F8000AEADACABAAA9A8A8A7A6A5A4A3A3A2A1DD
:101F9000A09F9F9E9D9C9C9B9A9999989797969598
:101FA00095949393929191908F8F8E8E8D8C8C8B34
:101FB0008B8A8989888887878685858484838382BC
:101FC000828181800000FF070000F87FB1FA81F371
:101FD0000B3B20D3994010D1B0FA80F310FA03F1F3
:101FE00008BF7047C3F11D0303F580634FEAD12298
:101FF0004FEA415002EB03517047C3F1200C20FA25
:102000000CFC9840C3F1320303F5806341EA0C01F4
:1020100001EB0351704710B5C3F10004C3F1320C5A
:10202000C4F1200E0CF5806201FA0EFC21FA04F1D5
:1020300000FA0EF3E040BDE8104040EA0C0001EB6E
:10204000025138BF7047401C41F100015B0008BFDE
:1020500020F0010070470EF1020E2EF0030E5EF824
:10206000046B364205D4012A43EB030515F5001F26
:1020700012D8012841EB010C1CF5001F0CD80ED121
:102080004FEAD17C15F5001F0CEB4C0C0CF1020C47
:1020900008BF4CEBD37C04E04FF0080C01E04FEAA2
:1020A000D37C0CEB4C0526FA05F606F00706B6F1D4
:1020B000040C06D20EEB860CBDE870404CF0010C0F
:1020C0006047DFE80CF0090B02024FF000414FF0CF
:1020D0000000A1F5002170BD19461046012851EB02
:1020E000010418BFD4F5001484BF002001F00041A2
:1020F00070BD0808A0F500114FEA310170474FF09C
:102100004070E1EE100A70474FEAC1230A1543EA16
:1021100050534FEAC02C18BF43F000431BD4A2F227
:102120004E02D2F57C72C0F22080502AA8BF502205
:1021300023FA02F12CFA02F060B4D2F1200284BF3B
:1021400003FA02F52843C2F100029CBF23FA02F50C
:10215000284360BC704701F1804212F5801F04DA09
:102160004FF000004FF00001704770B5FFF773FFAC
:1021700049922480002001E06FEAE1700146704737
:10218000000100001914000001000000000100001F
:1021900002000000B421000000000020DC0000006C
:1021A000A802000090220000DC000020AC02000029
:1021B000C402000000000000000000000000000059
:1021C000000000000000000000000000000000000F
:1021D00000000000000000000000000000000000FF
:1021E00000000000000000000000000000000000EF
:1021F00000000000000000000000000000000000DF
:1022000000000000000000000000000000000000CE
:1022100000000000000000000000000000000000BE
:1022200000000000000000000000000000000000AE
:10223000000000000000000000000000000000009E
:10224000000000000000000000000000000000008E
:10225000000000000000000000000000000000007E
:10226000000000000000000000000000000000006E
:1022700000000000020000000000000006080C033F
:10228000000000000000000000000000000000004E
:040000050000030DE7
:00000001FF
