:020000040000FA
:10000000800200200D03000015030000170300000C
:10001000190300001B0300001D0300000000000086
:100020000000000000000000000000001F030000AE
:10003000210300000000000023030000250300004E
:100040005D050000A9050000F5050000410600005F
:100050008D0600003103000033030000350300006B
:1000600037030000390300003B0300003D0300009C
:100070003F0300004103000043030000450300006C
:1000800047030000490300004B0300004D0300003C
:100090004F0300005103000053030000550300000C
:1000A00057030000590300005B0300005D030000DC
:1000B0005F03000061030000D90600006503000033
:1000C00067030000690300006B0300006D0300007C
:1000D0006F0300007103000073030000750300004C
:1000E0007703000079030000000000007B0300009C
:1000F0007D0300007F0300008103000083030000F4
:100100008503000087030000890300008B030000C3
:1001100000000000000000008D0300008F030000BD
:100120009103000093030000950300009703000073
:10013000990300009B0300009D0300009F03000043
:1001400000000000000000000000000000000000AF
:10015000A1030000A3030000A5030000A703000003
:10016000000000000000000000000000000000008F
:10017000000000000000000000000000000000007F
:10018000000000000000000000000000000000006F
:10019000000000000000000000000000000000005F
:1001A000000000000000000000000000000000004F
:1001B000A9030000AB030000AD030000AF03000083
:1001C000B1030000B3030000B5030000B703000053
:1001D000B9030000BB030000BD030000BF03000023
:1001E000C1030000C3030000C503000000000000BD
:1001F00000000000C7030000C9030000CB0300009B
:10020000CD030000CF03000000000000000000004C
:10021000D1030000D3030000D5030000D703000082
:10022000D9030000DB030000DD030000DF03000052
:10023000E1030000E3030000E5030000E703000022
:10024000E9030000EB030000ED030000EF030000F2
:10025000F1030000F3030000F5030000F7030000C2
:10026000F9030000FB030000FD03000000F002F8AA
:1002700000F03CF80AA090E8000C82448344AAF104
:100280000107DA4501D100F031F8AFF2090EBAE802
:100290000F0013F0010F18BFFB1A43F001031847BA
:1002A000E00C0000000D0000103A24BF78C878C1AF
:1002B000FAD8520724BF30C830C144BF04680C606C
:1002C000704700000023002400250026103A28BFB4
:1002D00078C1FBD8520728BF30C148BF0B607047B8
:1002E0001FB500F048FE1FBD10B510BD00F09BF813
:1002F0001146FFF7F5FF00F037FE00F0B9F803B440
:10030000FFF7F2FF03BC00F0C1F800003F48804750
:100310003F480047FEE7FEE7FEE7FEE7FEE7FEE7B1
:10032000FEE7FEE7FEE7FEE7FEE7FEE7FEE7FEE7A5
:10033000FEE7FEE7FEE7FEE7FEE7FEE7FEE7FEE795
:10034000FEE7FEE7FEE7FEE7FEE7FEE7FEE7FEE785
:10035000FEE7FEE7FEE7FEE7FEE7FEE7FEE7FEE775
:10036000FEE7FEE7FEE7FEE7FEE7FEE7FEE7FEE765
:10037000FEE7FEE7FEE7FEE7FEE7FEE7FEE7FEE755
:10038000FEE7FEE7FEE7FEE7FEE7FEE7FEE7FEE745
:10039000FEE7FEE7FEE7FEE7FEE7FEE7FEE7FEE735
:1003A000FEE7FEE7FEE7FEE7FEE7FEE7FEE7FEE725
:1003B000FEE7FEE7FEE7FEE7FEE7FEE7FEE7FEE715
:1003C000FEE7FEE7FEE7FEE7FEE7FEE7FEE7FEE705
:1003D000FEE7FEE7FEE7FEE7FEE7FEE7FEE7FEE7F5
:1003E000FEE7FEE7FEE7FEE7FEE7FEE7FEE7FEE7E5
:1003F000FEE7FEE7FEE7FEE7FEE7FEE7FEE70000BA
:1004000004480549034A054B70470000A90D000048
:100410006D0200008000002080020020800000208B
:10042000704770477047754600F02CF8AE460500DF
:100430006946534620F00700854618B020B5FFF7FF
:10044000DFFFBDE820404FF000064FF000074FF0FF
:1004500000084FF0000B21F00701AC46ACE8C009E2
:10046000ACE8C009ACE8C009ACE8C0098D467047EB
:1004700010B50446AFF300802046BDE81040FFF7FA
:100480003EBF0000004870472000002001491820AE
:10049000ABBEFEE7260002007047F8B504460D46E5
:1004A0001646012700200090002C13DB062C11DAE1
:1004B000002D0DDB082D0BDA46B16A462946204691
:1004C00000F030F99DF80000307004E0002702E0F1
:1004D000002700E000273846F8BD7CB504460D46ED
:1004E0000126002C1BDB062C19DA002D15DB082D4C
:1004F00013DA02208DF8040000208DF803008DF837
:1005000001008DF806508DF802008DF800008DF87E
:100510000540684600F084F902E0002600E000266D
:1005200030467CBD2DE9FC4100230093019300BFC0
:10053000DDE90023551C43F1000440F2FA26CDE921
:1005400000540024A0FB065701FB067600FB04665E
:10055000551B73EB0604EBD3BDE8FC8110B50F48C7
:100560000068C8B10D48006880470D490978042922
:1005700006DA0B4909784FF0402202EB013105E021
:1005800007490978091F074A02EB013101F21C40B3
:10059000016841F00101016010BD00000000002071
:1005A000180000200040024010B50F480068C8B194
:1005B0000D48006880470D490978042906DA0B497F
:1005C00009784FF0402202EB013105E00749097834
:1005D000091F074A02EB013101F21C40016841F09A
:1005E0000201016010BD000004000020190000207D
:1005F0000040024010B50F480068C8B10D480068BF
:1006000080470D490978042906DA0B4909784FF02B
:10061000402202EB013105E007490978091F074A2A
:1006200002EB013101F21C40016841F0040101605C
:1006300010BD0000080000201A0000200040024009
:1006400010B50F480068C8B10D48006880470D49D3
:100650000978042906DA0B4909784FF0402202EBA9
:10066000013105E007490978091F074A02EB01310A
:1006700001F21C40016841F00801016010BD00005A
:100680000C0000201B0000200040024010B50F4865
:100690000068C8B10D48006880470D4909780429F1
:1006A00006DA0B4909784FF0402202EB013105E0F0
:1006B00007490978091F074A02EB013101F21C4082
:1006C000016841F01001016010BD00001000002021
:1006D0001C0000200040024010B50F480068C8B15F
:1006E0000D48006880470D490978042906DA0B494E
:1006F00009784FF0402202EB013105E00749097803
:10070000091F074A02EB013101F21C40016841F068
:100710002001016010BD0000140000201D00002019
:100720000040024030B50346012012B3002B1EDB0F
:10073000062B1CDA002918DB082916DA042B04DA48
:100740004FF0402404EB033403E01C1F0A4D05EB7B
:100750000434D4F8FC4301258D402C4014B9012405
:10076000147007E00024147004E0002002E0002070
:1007700000E0002030BD00000040024070B503469C
:100780000120002B48DB062B46DA002942DB082932
:1007900040DAEAB9042B04DA4FF0402404EB0334C6
:1007A00003E01C1F1D4D05EB0434D4F8FC53012459
:1007B0008C40A543042B04DA4FF0402404EB0334AF
:1007C00003E01C1F154E06EB0434C4F8FC5324E070
:1007D000012A1DD1042B04DA4FF0402404EB03342A
:1007E00003E01C1F0D4D05EB0434D4F8FC53012429
:1007F0008C402543042B04DA4FF0402404EB0334EF
:1008000003E01C1F054E06EB0434C4F8FC5304E05F
:10081000002002E0002000E0002070BD0040024007
:1008200070B503460120002B72D059799A7939B9F5
:10083000FE4C246844F00104FD4DC5F8084132E047
:10084000012907D1F94C246844F00204F84DC5F899
:10085000084128E0022907D1F44C246844F004043C
:10086000F34DC5F808411EE0032907D1EF4C246879
:1008700044F00804EE4DC5F8084114E0042907D1FE
:10088000EA4C246844F01004E94DC5F808410AE038
:10089000052907D1E54C246844F02004E44DC5F84F
:1008A000084100E00020E34D042904DA4FF0402421
:1008B00004EB013403E00C1FDF4E06EB0434C4F8F4
:1008C0002055042904DA4FF0402404EB013403E0FE
:1008D0000C1FD94D05EB0434D4F824550124944061
:1008E0002543042904DA4FF0402404EB013403E0EB
:1008F0000C1FD14E06EB0434C4F824555C78012C4F
:100900001ED1042905DA4FF0402404EB013404E041
:10091000FFE10C1FC84D05EB0434D4F8005401244A
:1009200094402543042904DA4FF0402404EB0134B9
:1009300003E00C1FC04E06EB0434C4F800541CE066
:10094000042904DA4FF0402404EB013403E00C1FC7
:10095000B94D05EB0434D4F8005401249440A54368
:10096000042904DA4FF0402404EB013403E00C1FA7
:10097000B14E06EB0434C4F80054DC78ECB9042919
:1009800004DA4FF0402404EB013403E00C1FAA4DBD
:1009900005EB0434D4F81055012494402543042970
:1009A00004DA4FF0402404EB013403E00C1FA24EA4
:1009B00006EB0434C4F8105542E0DC78012C1DD15C
:1009C000042904DA4FF0402404EB013403E00C1F47
:1009D000994D05EB0434D4F8145501249440254373
:1009E000042904DA4FF0402404EB013403E00C1F27
:1009F000914E06EB0434C4F8145521E0DC78022C47
:100A00001DD1042904DA4FF0402404EB013403E043
:100A10000C1F894D05EB0434D4F80C550124944087
:100A20002543042904DA4FF0402404EB013403E0A9
:100A30000C1F814E06EB0434C4F80C5500E0002076
:100A40001C79ECB9042904DA4FF0402404EB01349A
:100A500003E00C1F784D05EB0434D4F80055012455
:100A600094402543042904DA4FF0402404EB013478
:100A700003E00C1F704E06EB0434C4F8005542E04E
:100A80001C79012C1DD1042904DA4FF0402404EB19
:100A9000013403E00C1F684D05EB0434D4F8045511
:100AA000012494402543042904DA4FF0402404EB48
:100AB000013403E00C1F604E06EB0434C4F8045507
:100AC00021E01C79022C1DD1042904DA4FF04024C6
:100AD00004EB013403E00C1F574D05EB0434D4F84C
:100AE0000855012494402543042904DA4FF040249A
:100AF00004EB013403E00C1F4F4E06EB0434C4F842
:100B0000085500E000201C789CBB042904DA4FF053
:100B1000402404EB013403E00C1F474D05EB043483
:100B2000D4F8205401249440A543042904DA4FF05A
:100B3000402404EB013403E00C1F3F4E06EB043469
:100B4000C4F82054042904DA4FF0402404EB0134A3
:100B500003E00C1F384D05EB0434D4F81C55012478
:100B600094402543042905DA4FF0402404EB013476
:100B700004E023E00C1F304E06EB0434C4F81C558F
:100B8000042904DA4FF0402404EB013403E00C1F85
:100B9000294D05EB0434D4F8285501249440A5438D
:100BA000042904DA4FF0402404EB013403E00C1F65
:100BB000214E06EB0434C4F8285567E01C78012C5C
:100BC00060D1042904DA4FF0402404EB013403E03F
:100BD0000C1F194D05EB0434D4F820540124944023
:100BE000A543042904DA4FF0402404EB013403E068
:100BF0000C1F114E06EB0434C4F82054042904DA07
:100C00004FF0402404EB013403E00C1F0A4D05EBC8
:100C10000434D4F81C5501249440A54304290DDA6A
:100C20004FF0402404EB01340CE0000008E10F40D9
:100C300000E00F404B434F4C004002400C1F364E2B
:100C400006EB0434C4F81C55042904DA4FF04024A0
:100C500004EB013403E00C1F2F4D05EB0434D4F8F2
:100C60002855012494402543042904DA4FF04024F8
:100C700004EB013403E00C1F274E06EB0434C4F8E8
:100C8000285503E01C78022C00D000209C78ECB999
:100C9000042904DA4FF0402404EB013403E00C1F74
:100CA0001D4D05EB0434D4F8FC5301249440A543B6
:100CB000042904DA4FF0402404EB013403E00C1F54
:100CC000154E06EB0434C4F8FC5323E09C78012C49
:100CD0001DD1042904DA4FF0402404EB013403E071
:100CE0000C1F0D4D05EB0434D4F8FC530124944043
:100CF0002543042904DA4FF0402404EB013403E0D7
:100D00000C1F054E06EB0434C4F8FC5302E000202F
:100D100000E0002070BD0000004002402DE9F041DD
:100D200004460D4616460127002C12DB062C10DA6D
:100D3000002D0CDB082D0ADA0EB1012E05D132464A
:100D400029462046FFF71AFD04E0002702E00027AD
:100D500000E000273846BDE8F0817CB504460D462A
:100D60000126002C1DDB062C1BDA002D17DB082DBD
:100D700015DA02208DF8040000208DF80300012010
:100D80008DF801008DF8065000208DF802008DF8D6
:100D900000008DF805406846FFF742FD02E000269E
:100DA00000E0002630467CBD1B49096841F4700113
:100DB000194A116019491A4A11671A4911661A49E4
:100DC00011661A491167002000E0401CB0F57A7FD7
:100DD000FBD31749124A116616491167002000E03B
:100DE000401CB0F57A7FFBD313490D4A116600BF52
:100DF0000B49096D01F040014029F9D10F49084A1A
:100E000011664FF0C0711167002000E0401C42F2F3
:100E100010718842FAD3704788ED00E010288007EF
:100E200000E00F40D13A8E07422D9E01002880013C
:100E3000420D9E0100088001420DDE014205DE01E7
:100E400010B501210520FFF788FF02210520FFF7DB
:100E500084FF03210520FFF780FF00210520FFF715
:100E60003CFB10BD08B500200090012500247AE06D
:100E70006A4600210520FFF710FB9DF800000128BD
:100E800070D132200021FFF74DFB6A46002105207A
:100E9000FFF703FB9DF80000012864D1002D62D10B
:100EA000601CC4B2012C06D0022C14D0032C22D01A
:100EB000042C40D12FE0012211460520FFF72EFF20
:100EC000002202210520FFF729FF0022032105202F
:100ED000FFF724FF3FE0002201210520FFF71EFF5E
:100EE000012202210520FFF719FF0022032105201E
:100EF000FFF714FF2FE0002201210520FFF70EFF6E
:100F0000002202210520FFF709FF0122032105200D
:100F1000FFF704FF1FE0012211460520FFF7FEFE48
:100F2000012202210520FFF7F9FE012203210520FD
:100F3000FFF7F4FE0FE0002201210520FFF7EEFE8F
:100F4000002202210520FFF7E9FE002203210520EF
:100F5000FFF7E4FE00BF00BF0125052C03D10024EC
:100F600001E0FFE7002583E710B5FFF769FFFFF712
:100F700079FF002010BD4FF04070E1EE100A70477D
:100F8000A00F00000000002020000000A8020000C8
:100F9000C00F00002000002060020000C40200001A
:100FA0000000000000000000000000000000000041
:100FB000000000000000000006060606060600000D
:040000050000030DE7
:00000001FF
